:100000000C9463000C948B000C948B000C94DE0316
:100010000C94DE030C94DE030C948B000C948B0088
:100020000C948B000C948B000C948B000C948B0024
:100030000C948B000C948B000C948B000C948B0014
:100040000C943C030C948B000C94AC030C9486032E
:100050000C948B000C948B000C948B000C948B00F4
:100060000C948B000C948B000000000024002700EF
:100070002A0000000008000201000003040700003D
:1000800000000000000000000000230026002900FE
:1000900000000000250028002B00040404040404D0
:1000A0000404020202020202030303030303010227
:1000B00004081020408001020408102001020408F6
:1000C00010205604C00711241FBECFEFD8E0DEBFBA
:1000D000CDBF22E0AAE6B1E001C01D92AD37B20764
:1000E000E1F711E0A0E0B1E0EAE6F4E102C005903A
:1000F0000D92AA36B107D9F710E0C2E6D0E004C0ED
:100100002197FE010E942708C136D107C9F70E9436
:1001100034050C94280A0C94000090E0FC01EE5881
:10012000FF4F2491FC01E255FF4F3491FC01E6564C
:10013000FF4FE491EE23C9F0222339F0233001F17F
:10014000A8F4213019F1223029F1F0E0EE0FFF1F61
:10015000E057FF4FA591B4918FB7F894EC916111DE
:1001600026C030953E233C938FBF08952730A9F0D9
:100170002830C9F0243049F7809180008F7D03C07A
:10018000809180008F7780938000DFCF84B58F7758
:1001900084BDDBCF84B58F7DFBCF8091B0008F779E
:1001A0008093B000D2CF8091B0008F7DF9CF3E2BED
:1001B000DACFCF93DF9390E0FC01E255FF4F24911B
:1001C00086569F4FFC0184918823D1F090E0880FE0
:1001D000991FFC01E859FF4FA591B491FC01E0572C
:1001E000FF4FC591D49161110EC09FB7F8948C91C7
:1001F000E22FE0958E238C932881E223E8839FBF32
:10020000DF91CF9108958FB7F894EC91E22BEC93A6
:100210008FBFF6CF0895AF92BF92CF92DF92EF9249
:10022000FF920F931F93CF93DF936C017B018B01A0
:10023000040F151FEB015E01AE18BF08C017D107F0
:1002400059F06991D601ED91FC910190F081E02D7A
:10025000C6010995892B79F7C501DF91CF911F91CF
:100260000F91FF90EF90DF90CF90BF90AF900895E7
:10027000FC01538D448D252F30E0842F90E0821BAC
:10028000930B541710F0CF96089501970895FC0131
:10029000918D828D981761F0A28DAE0FBF2FB11D89
:1002A0005D968C91928D9F5F9F73928F90E00895E1
:1002B0008FEF9FEF0895FC01918D828D981731F09B
:1002C000828DE80FF11D858D90E008958FEF9FEFEF
:1002D0000895FC01918D228D892F90E0805C9F4FC5
:1002E000821B91098F739927089587EB91E00E94F3
:1002F000690121E0892B09F420E0822F089580E034
:1003000090E0892B29F00E94750181110C94000066
:100310000895FC01A48DA80FB92FB11DA35ABF4F9A
:100320002C91848D90E001968F739927848FA689F4
:10033000B7892C93A089B1898C91837080648C9348
:10034000938D848D981306C00288F389E02D8081F7
:100350008F7D80830895EF92FF920F931F93CF9329
:10036000DF93EC0181E0888F9B8D8C8D98131AC0F0
:10037000E889F989808185FF15C09FB7F894EE89D7
:10038000FF896083E889F989808183708064808334
:100390009FBF81E090E0DF91CF911F910F91FF907F
:1003A000EF900895F62E0B8D10E00F5F1F4F0F7327
:1003B0001127E02E8C8D8E110CC00FB607FCFACFE2
:1003C000E889F989808185FFF5CFCE010E948901F6
:1003D000F1CFEB8DEC0FFD2FF11DE35AFF4FF082B3
:1003E0009FB7F8940B8FEA89FB8980818062CFCF19
:1003F000CF93DF93EC01888D8823B9F0AA89BB895C
:10040000E889F9898C9185FD03C0808186FD0DC046
:100410000FB607FCF7CF8C9185FFF2CF808185FF67
:10042000EDCFCE010E948901E9CFDF91CF910895F0
:100430002091AC013091AD012817390771F49091EA
:10044000AA018091AB01981741F0E091AA01F0E078
:10045000E659FE4F808190E008958FEF9FEF089559
:100460000895EF92FF920F931F93CF93DF93DC01D8
:100470005C96ED90FC905D97E114F10479F481E0D5
:1004800090E013969C938E93129790E080E0DF911A
:10049000CF911F910F91FF90EF9008955196ED919C
:1004A000FC91529750968C915097982F90950FB73A
:1004B0005E962C915E97122F127021FD6095F89434
:1004C0002081112319F1282B2083E7012197F1F7CF
:1004D00028E0462F50E0308160FF1AC0382B30836F
:1004E000E7012197F1F7BA0175956795215089F7D2
:1004F000112381F08081892380830FBF5C968D91C9
:100500009C910197F1F781E090E0C1CF2923DCCFE6
:100510003923E5CF9081892BEFCF2091AC01309129
:10052000AD012817390761F48091AB012091AA0130
:1005300090E0805C9F4F821B91098F7399270895EB
:1005400090E080E008952091AC013091AD01281732
:100550003907B9F49091AA018091AB01981789F0FD
:10056000E091AA01F0E0E659FE4F80812091AA01B6
:1005700030E02F5F3F4F2F7333272093AA0190E085
:1005800008958FEF9FEF08952FB7F8948091B301EE
:100590009091B401A091B501B091B6012FBF8093A5
:1005A000620290936302A0936402B09365028AE5AD
:1005B00092E00E94A30297FF26C02FB7F894809183
:1005C000B3019091B401A091B501B091B6012FBFD4
:1005D00040916202509163026091640270916502E1
:1005E000841B950BA60BB70B40915E0250915F02E6
:1005F000609160027091610284179507A607B707A2
:10060000B0F28FEF9FEF089590E080E00895FC0135
:1006100001900020E9F73197AF01481B590BBC014D
:1006200087EB91E00C940B010F931F93CF93DF9313
:10063000EC0188819981009759F02A813B81261726
:10064000370730F081E0DF91CF911F910F9108952E
:100650008B016F5F7F4F0E945209009759F0998379
:1006600088831B830A832C813D81232B59F7FC014E
:100670001082E8CF80E0E7CF1F920F920FB60F9263
:1006800011242F933F938F939F93AF93BF938091A8
:10069000B3019091B401A091B501B091B601309130
:1006A000B20123E0230F2D3758F50196A11DB11D8E
:1006B0002093B2018093B3019093B401A093B5014C
:1006C000B093B6018091AE019091AF01A091B001BD
:1006D000B091B1010196A11DB11D8093AE0190931F
:1006E000AF01A093B001B093B101BF91AF919F91C1
:1006F0008F913F912F910F900FBE0F901F901895E3
:1007000026E8230F0296A11DB11DD2CF1F920F9292
:100710000FB60F9211242F933F934F935F936F93D4
:100720007F938F939F93AF93BF93EF93FF9387EB49
:1007300091E00E948901FF91EF91BF91AF919F914C
:100740008F917F916F915F914F913F912F910F907A
:100750000FBE0F901F9018951F920F920FB60F9219
:1007600011242F938F939F93EF93FF93E091C701F1
:10077000F091C8018081E091CD01F091CE0182FD20
:100780001BC090818091D0018F5F8F732091D10128
:10079000821741F0E091D001F0E0E954FE4F958FCF
:1007A0008093D001FF91EF919F918F912F910F90A6
:1007B0000FBE0F901F9018958081F4CF1F920F925B
:1007C0000FB60F9211242F933F934F935F936F9324
:1007D0007F938F939F93AF93BF93EF93FF93E0919A
:1007E000AC01F091AD01309749F0A685B7858585BC
:1007F000968D91FF14C09C918923A1F4FF91EF91F4
:10080000BF91AF919F918F917F916F915F914F9128
:100810003F912F910F900FBE0F901F9018959C91B4
:10082000892361F7A389B4899C918589809589235F
:100830008C93868997890197F1F7608D718DA685D4
:10084000B785558538E020E0CB010197F1F7822F7D
:1008500090E095958795282F4C91452309F02068C5
:10086000315091F7868D81FD20958091AB0190E00C
:1008700001968F7399273091AA01381799F0A091AA
:10088000AB01B0E0A659BE4F2C938093AB01828D93
:10089000938D0197F1F7A389B4898C919589892B60
:1008A0008C93ACCF868D8160868FF1CF1092BA0188
:1008B0001092B90188EE93E0A0E0B0E08093BB0114
:1008C0009093BC01A093BD01B093BE012AE031E03A
:1008D0003093B8012093B70125EC30E03093C40188
:1008E0002093C30124EC30E03093C6012093C5016E
:1008F00020EC30E03093C8012093C70121EC30E0B8
:100900003093CA012093C90122EC30E03093CC012E
:100910002093CB0126EC30E03093CE012093CD0123
:100920001092D0011092D1011092D2011092D301F5
:1009300010925D0210925C0280935E0290935F02BF
:10094000A0936002B09361028CE191E090935B020E
:1009500080935A02109271021092700210927302E8
:100960001092720210927502109274021092770225
:1009700010927602609178026E7F6D7F60937802AC
:100980006695617081E0682789E00E948D0061E0D2
:1009900089E00E94D900E7EBF0E0E491E0936A027D
:1009A000E3EAF0E0E491F0E0EE0FFF1FE057FF4FC5
:1009B0008591949190936C0280936B0260E088E043
:1009C0000E94D9008091780281FD04C061E088E036
:1009D0000E948D0088E080936602E6EBF0E0E491EF
:1009E000E0936702E2EAF0E0E491F0E0EE0FFF1F2F
:1009F000EA57FF4F85919491909369028093680222
:100A00001092550210925402109257021092560200
:100A1000109259021092580270E060E084E592E072
:100A20000E9414032091540230915502811113C089
:100A30002115310519F0C9010E94C908109255020B
:100A400010925402109259021092580210925702BA
:100A500010925602089510925902109258026BE3B8
:100A600071E0C9010C94210ACF93DF93CDB7DEB7B3
:100A700028970FB6F894DEBF0FBECDBF789484B52B
:100A8000826084BD84B5816084BD85B5826085BD8A
:100A900085B5816085BD80916E00816080936E0018
:100AA000109281008091810082608093810080910A
:100AB00081008160809381008091800081608093BB
:100AC00080008091B10084608093B1008091B0007B
:100AD00081608093B00080917A00846080937A0076
:100AE00080917A00826080937A0080917A008160A0
:100AF00080937A0080917A00806880937A001092C7
:100B0000C10061E08AE00E94D90061E082E00E94B9
:100B1000D90061E083E00E94D90061E084E00E9496
:100B2000D90061E085E00E94D900E091C701F09111
:100B3000C80182E08083E091C301F091C40110827A
:100B4000E091C501F091C60180E180831092CF0150
:100B5000E091CB01F091CC0186E08083E091C90166
:100B6000F091CA01808180618083E091C901F09198
:100B7000CA01808188608083E091C901F091CA0137
:100B8000808180688083E091C901F091CA018081F1
:100B90008F7D8083109275021092740210927302FE
:100BA0001092720210927102109270028DE991E01F
:100BB000909377028093760290916602963108F0C6
:100BC00047C02DEB30E030937102209370022BE987
:100BD00031E030937302209372022CE231E03093C3
:100BE0007502209374022091680084E0983048F0E8
:100BF00031E09E3008F430E081E001C0880F3A9582
:100C0000EAF7822B809368002DE630E0983050F0B0
:100C10002BE630E09E3030F02CE630E0963110F0DC
:100C200030E020E030936E0220936D02292F30E0F7
:100C3000983008F08DC081E001C0880F9A95EAF7DE
:100C400080936F0280917602909177020197F1F77D
:100C50008091740290917502892B49F1E091AC0169
:100C6000F091AD0182E0EA35F80709F1309739F0EB
:100C7000A389B4899C918589809589238C938091DF
:100C800078028E7F809378021092AB011092AA01B5
:100C90008AE592E09093AD018093AC01E0916D0202
:100CA000F0916E02808190916F02892B80838AE29D
:100CB00091E00E94070389E391E00E94070380E02E
:100CC000A82E80E0B82E8AE592E00E948D02892B42
:100CD00009F4A4C01A8219821C821B821E821D8202
:100CE00070E060E0CE0101960E94140329813A81F0
:100CF00081113BC02115310519F0C9010E94C908B5
:100D00001A8219821E821D821C821B820E94C402CA
:100D100097FD33C08A30910581F18F8318860D814C
:100D20001E810F5F1F4FB801CE0101960E94140370
:100D3000882361F329813A818D819E81BE01695F9B
:100D40007F4F820F931F0E94210A1E830D83DECFE7
:100D50009E3040F42850310981E001C0880F2A9567
:100D6000EAF76ECF2E503109F7CF1E821D826BE35A
:100D700071E0C9010E94210AC9CF8091540290916B
:100D80005502009709F4A8C069817A81611571053F
:100D900009F4A0C040915602509157022D813E8126
:100DA0004217530708F496C00E94210A8D819E8144
:100DB00090935902809358021E821D8289819A81E4
:100DC000009711F00E94C908C0905402D0905502BB
:100DD000C114D10449F000915802109159027601D2
:100DE0000115110509F090C08091580290915902A7
:100DF000892BA1F08CE391E00E94070340915802F7
:100E000050915902609154027091550287EB91E024
:100E10000E940B0189E391E00E9407038091580230
:100E200090915902892B71F067E471E0809154022E
:100E3000909155020E94180A892B21F461E08AE002
:100E40000E948D008091580290915902892B71F077
:100E50006CE471E080915402909155020E94180A4E
:100E6000892B21F460E08AE00E948D008091580275
:100E700090915902892B71F065E571E080915402DF
:100E8000909155020E94180A892B21F461E082E0BA
:100E90000E948D008091580290915902892B71F027
:100EA0006FE571E080915402909155020E94180AFA
:100EB000892B21F460E082E00E948D00A114B1042E
:100EC00009F401CF0E947501882309F4FCCE0E9429
:100ED0000000F9CE0E94C90889819A819093550239
:100EE000809354028B819C81909357028093560289
:100EF0008D819E8190935902809358021A821982A3
:100F00001C821B8259CF74014701EFEF8E1A9E0A93
:100F1000F7018081082E000C990B0E94E407892BB1
:100F200091F7015011090C0D1D1DF8018081082E4B
:100F3000000C990B0E94E407892B31F00E151F0558
:100F400018F001501109F1CFA8014F5F5F4F4E1902
:100F50005F095093590240935802CE14DF0420F4E5
:100F6000B701C6010E940F0AE0915402F0915502A8
:100F70008091580290915902E80FF91F108234CFE6
:100F80008091540290915502009711F00E94C90877
:100F90008CE191E090935B0280935A028091AC01C6
:100FA0009091AD018A55924071F4E0916D02F091FB
:100FB0006E02908180916F028095892380831092C8
:100FC000AD011092AC01089591110C94ED0780329F
:100FD00019F089508550C8F70895992788270895F2
:100FE0002F923F924F925F926F927F928F929F9239
:100FF000AF92BF92CF92DF92EF92FF920F931F9327
:10100000CF93DF93CDB7DEB7CA1BDB0B0FB6F894D7
:10101000DEBF0FBECDBF09942A88398848885F8417
:101020006E847D848C849B84AA84B984C884DF8088
:10103000EE80FD800C811B81AA81B981CE0FD11D6C
:101040000FB6F894DEBF0FBECDBFED010895EE0FD1
:10105000FF1F0590F491E02D09940F931F93CF93F8
:10106000DF938230910510F482E090E0E0917B0202
:10107000F0917C0230E020E0B0E0A0E0309799F4FD
:101080002115310509F44AC0281B390B24303105DC
:10109000D8F58A819B816115710589F1FB019383E4
:1010A0008283FE0111C04081518102811381481762
:1010B0005907E0F04817590799F4109761F0129614
:1010C0000C93129713961C933296CF01DF91CF9118
:1010D0001F910F91089500937B0210937C02F4CF2F
:1010E0002115310551F04217530738F0A901DB01F2
:1010F0009A01BD01DF01F801C1CFEF01F9CF909353
:101100007C0280937B02CDCFFE01E20FF31F81931F
:1011100091932250310939832883D7CF20917902C6
:1011200030917A02232B41F4209102013091030186
:1011300030937A02209379022091000130910101CD
:101140002115310541F42DB73EB74091040150916E
:101150000501241B350BE0917902F0917A02E21728
:10116000F307A0F42E1B3F0B2817390778F0AC01CA
:101170004E5F5F4F2417350748F04E0F5F1F5093A7
:101180007A0240937902819391939FCFF0E0E0E05F
:101190009CCFCF93DF930097E9F0FC013297138245
:1011A0001282A0917B02B0917C02ED0130E020E040
:1011B0001097A1F420813181820F931F2091790231
:1011C00030917A022817390709F061C0F0937A024A
:1011D000E0937902DF91CF910895EA01CE17DF07FE
:1011E000E8F54A815B819E0141155105B1F7E9019E
:1011F000FB83EA8349915991C40FD51FEC17FD0772
:1012000061F4808191810296840F951FE901998391
:101210008883828193819B838A83F0E0E0E0129649
:101220008D919C9113970097B9F52D913C91119751
:10123000CD010296820F931F2091790230917A029C
:101240002817390739F6309751F510927C02109221
:101250007B02B0937A02A0937902BCCFD383C2837E
:1012600040815181840F951FC817D90761F44E5FE3
:101270005F4F88819981480F591F518340838A812C
:101280009B81938382832115310509F0B0CFF093C0
:101290007C02E0937B029ECFFD01DC01C0CF138274
:1012A0001282D7CFB0E0A0E0E8E5F9E00C94F207B5
:1012B0008C01009751F4CB010E942D088C01C801CC
:1012C000CDB7DEB7E0E10C940E08FC01E60FF71F86
:1012D0009C0122503109E217F30708F49DC0D9019F
:1012E000CD91DC911197C617D70798F0C530D1057D
:1012F00030F3CE0104978617970708F3C61BD70B68
:101300002297C193D1936D937C93CF010E94C9081A
:10131000D6CF5B01AC1ABD0A4C018C0E9D1EA0916C
:101320007B02B0917C02512C412CF12CE12C1097C6
:1013300031F58091790290917A028815990509F02A
:101340005CC04616570608F058C080910001909185
:101350000101009741F48DB79EB74091040150916F
:101360000501841B950BE817F90708F055C0F093A9
:101370007A02E0937902F90171836083A0CF8D91A5
:101380009C91119712966C90129713967C901397DC
:10139000A815B90559F56C0142E0C40ED11CCA1458
:1013A000DB0420F1AC014A195B09DA0112961597AA
:1013B00080F06282738251834083D9016D937C9364
:1013C000E114F10471F0D7011396FC93EE93129798
:1013D00076CF22968C0F9D1FF90191838083F301B4
:1013E000EFCFF0937C02E0937B0269CF4816590659
:1013F00008F42C017D01D3019ACFCB010E942D0866
:101400007C01009749F0AE01B8010E940F0AC801A3
:101410000E94C908870153CF10E000E050CFFB01C4
:10142000DC0102C001900D9241505040D8F7089560
:10143000FB01DC018D91019080190110D9F3990B0A
:101440000895FB01DC0101900D920020E1F7089561
:1014500010E0C2E6D0E004C0FE010E9427082196F9
:0A146000C336D107C9F7F894FFCF97
:10146A0000007D02800000000000AB010B01380182
:10147A00F801690147015B010000000031020B011C
:10148A00040330028D02A302180253657269616C6B
:10149A002053746172746564000D0A004E616E6FA8
:1014AA0020676F743A200042656570004E6F2042D3
:1014BA006565702100427574746F6E304F6E00421C
:0A14CA007574746F6E304F66660093
:00000001FF
